{
  "contractName": "voting",
  "abi": [
    {
      "inputs": [],
      "stateMutability": "nonpayable",
      "type": "constructor"
    },
    {
      "inputs": [
        {
          "internalType": "uint256",
          "name": "id",
          "type": "uint256"
        }
      ],
      "name": "castvote",
      "outputs": [],
      "stateMutability": "nonpayable",
      "type": "function"
    },
    {
      "inputs": [],
      "name": "viewvotes",
      "outputs": [
        {
          "internalType": "uint256[3]",
          "name": "",
          "type": "uint256[3]"
        }
      ],
      "stateMutability": "view",
      "type": "function",
      "constant": true
    }
  ],
  "bytecode": "0x608060405234801561001057600080fd5b5060008060006003811061002757610026610067565b5b018190555060008060016003811061004257610041610067565b5b018190555060008060026003811061005d5761005c610067565b5b0181905550610096565b7f4e487b7100000000000000000000000000000000000000000000000000000000600052603260045260246000fd5b610438806100a56000396000f3fe608060405234801561001057600080fd5b50600436106100365760003560e01c806391b94a7e1461003b578063cdc932fc14610059575b600080fd5b610043610075565b60405161005091906102f7565b60405180910390f35b610073600480360381019061006e9190610343565b6100c0565b005b61007d610220565b60006003806020026040519081016040528092919082600380156100b6576020028201915b8154815260200190600101908083116100a2575b5050505050905090565b600360003373ffffffffffffffffffffffffffffffffffffffff1673ffffffffffffffffffffffffffffffffffffffff16815260200190815260200160002060009054906101000a900460ff161561011757600080fd5b600181036101515760016000806003811061013557610134610370565b5b01600082825461014591906103ce565b925050819055506101c5565b6002810361018c57600160006001600381106101705761016f610370565b5b01600082825461018091906103ce565b925050819055506101c4565b600381036101c357600160006002600381106101ab576101aa610370565b5b0160008282546101bb91906103ce565b925050819055505b5b5b6001600360003373ffffffffffffffffffffffffffffffffffffffff1673ffffffffffffffffffffffffffffffffffffffff16815260200190815260200160002060006101000a81548160ff02191690831515021790555050565b6040518060600160405280600390602082028036833780820191505090505090565b600060039050919050565b600081905092915050565b6000819050919050565b6000819050919050565b61027581610262565b82525050565b6000610287838361026c565b60208301905092915050565b6000602082019050919050565b6102a981610242565b6102b3818461024d565b92506102be82610258565b8060005b838110156102ef5781516102d6878261027b565b96506102e183610293565b9250506001810190506102c2565b505050505050565b600060608201905061030c60008301846102a0565b92915050565b600080fd5b61032081610262565b811461032b57600080fd5b50565b60008135905061033d81610317565b92915050565b60006020828403121561035957610358610312565b5b60006103678482850161032e565b91505092915050565b7f4e487b7100000000000000000000000000000000000000000000000000000000600052603260045260246000fd5b7f4e487b7100000000000000000000000000000000000000000000000000000000600052601160045260246000fd5b60006103d982610262565b91506103e483610262565b92508282019050808211156103fc576103fb61039f565b5b9291505056fea2646970667358221220de8971f2c69412dbf38f4e25c492c21a22743b3ba4948186d18b6067d839984764736f6c63430008130033",
  "immutableReferences": {},
  "source": "// SPDX-License-Identifier: MIT\npragma solidity 0.8.19;\n\ncontract voting {\n  uint[3] _votes;\n  mapping(address=>bool) _voters;\n\n  constructor() {\n    _votes[0]=0;\n    _votes[1]=0;\n    _votes[2]=0;\n  }\n\n  function castvote(uint id) public {\n    require(!_voters[msg.sender]);\n    if(id==1)\n      _votes[0]+=1;\n    else if(id==2)\n      _votes[1]+=1;\n    else if(id==3)\n      _votes[2]+=1;\n    \n    _voters[msg.sender]=true;\n  }\n\n  function viewvotes() public view returns(uint[3] memory){\n    return _votes;\n  }\n}\n",
  "sourcePath": "C:\\Users\\DELL\\Desktop\\voting dapp\\contracts\\voting.sol",
  "compiler": {
    "name": "solc",
    "version": "0.8.19+commit.7dd6d404.Emscripten.clang"
  },
  "schemaVersion": "3.4.16",
  "updatedAt": "2023-12-26T11:37:46.723Z",
  "networkType": "ethereum",
  "devdoc": {
    "kind": "dev",
    "methods": {},
    "version": 1
  },
  "userdoc": {
    "kind": "user",
    "methods": {},
    "version": 1
  }
}